:100000000C942A000C943F000C943F000C943F0089
:100010000C943F000C943F000C943F000C943F0064
:100020000C943F000C943F000C943F000C943F0054
:100030000C943F000C943F000C943F000C943F0044
:100040000C943F000C943F000C943F000C943F0034
:100050000C943F0011241FBECFE5D8E0DEBFCDBF1A
:1000600010E0A0E6B0E0ECE8F1E002C005900D92EF
:10007000AA36B107D9F70E9481000C94C4000C94F1
:100080000000DF93CF93CDB7DEB760970FB6F8943B
:10009000DEBF0FBECDBF8B87CE0101969D878C87BB
:1000A000E0E6F0E0FF87EE87FAE0F88BEE85FF856B
:1000B00000808E859F8501969F878E87EC85FD85C4
:1000C00000828C859D8501969D878C8798899150AB
:1000D000988BE889EE2351F7ABE3B0E08B85282FAE
:1000E00030E0CE010196FC01E20FF31F80818C937A
:1000F00060960FB6F894DEBF0FBECDBFCF91DF91F3
:100100000895DF93CF9300D0CDB7DEB71A8219825E
:10011000EAE3F0E08FEF8083A7E3B0E0E7E3F0E00D
:1001200080818E7F8C93E8E3F0E08FEF8083E4E3BF
:10013000F0E081E080838A810E944100E6E3F0E004
:1001400080818E3F81F48981882369F48A818F5F61
:100150008A838A810E944100E5E3F0E081E08083A8
:1001600081E0898309C0E6E3F0E080818F3F21F4DC
:100170001982E5E3F0E010828A818930F9F6E5E33F
:0C018000F0E081E08083FBCFF894FFCF1B
:0A018C00C0F9A4B0999282F88090A7
:00000001FF
